:1000000002EF00F07F9C7F8E78ECFFF069ECFFF050
:100010005EECFFF0959095940EEF00F004EE00F08A
:10002000010EF86EFE0EF76EAE0EF66E0D0E006E41
:1000300074ECFFF0C450C4CF02F0C3CF03F0000E45
:10004000046F02BF4FEC00F00F0E021702B752EC24
:1000500000F00233033304A169EC00F004B16CEC4E
:1000600000F00250A3ECFFF00350A3ECFFF0100EE1
:1000700002138C848C94025064ECFFF0035064EC07
:10008000FFF08C848C808C90000000000000000049
:1000900000008C8018EF00F0012EFED71200010E38
:1000A000046F1200000E056F070E02170233D8CF3F
:1000B00005F005B163EC00F0033305B166EC00F028
:1000C000080E02271200010E056F1200000E032712
:1000D0001200080E02271200031F021F070E02174C
:0200E00012000C
:020000040001F9
:10FEAE0048656C6C6F20576F726C64210A00689CF9
:10FEBE00320E676E9598959C12006A6EA1AAFED7B7
:10FECE00A19A120092800F0125810001010EC26ECF
:10FEDE00300EC16EF60EC06E1200C282C2B2FED7D6
:10FEEE0012008A6AC00E936E280EEAECFFF0300EF6
:10FEFE00B9ECFFF00A0EF1ECFFF0280EB9ECFFF0B2
:10FF0E000A0EF1ECFFF0280EB9ECFFF00A0EF1EC40
:10FF1E00FFF00F0EB9ECFFF00A0EF1ECFFF0010E40
:10FF2E00B9ECFFF0020EEAECFFF0060EB9ECFFF0B2
:10FF3E000A0EF1ECFFF012000C6E0C38A8ECFFF07C
:10FF4E000C500F0B096E0A0E0960070F260F0924BD
:10FF5E00C7ECFFF012000A6EDE50C7ECFFF00A2E5F
:10FF6E00FBD71200096E09380F0B8A6E8A98D8ECEF
:10FF7E00FFF009500F0B8A6E8A98D8ECFFF0120032
:10FF8E00096E09380F0B8A6E8A88D8ECFFF009507B
:10FF9E000F0B8A6E8A88D8ECFFF00A0EF1ECFFF098
:10FFAE001200000000000000000000000000000031
:10FFBE0000008A8A0000000000000000000000001F
:10FFCE0000008A9A1200086EFA0EF1ECFFF0082E6D
:10FFDE00FBD71200066E063A0F0E0614076EF00ED1
:10FFEE000616FBECFFF01200000E0606075AFDE2A5
:02FFFE001200EF
:020000040030CA
:0700000015137F00B98B917D
:06000800FFC0FFE0FF4015
:00000001FF
