:1000000002EF00F07F9C7F8E64ECFFF078ECFFF055
:1000100055ECFFF00CEF00F004EE00F0010EF86E6E
:10002000FE0EF76E9C0EF66E0D0E006E0900F5CFFB
:10003000EEFF002EFBD70D0E24EE00F06DECFFF06E
:100040000C0E24EE00F0B2ECFFF060ECFFF0C450B8
:10005000C4CF02F0C3CF03F002BF3FEC00F00F0E9D
:10006000021702B742EC00F00250A3ECFFF003507D
:10007000A3ECFFF025EF00F0012EFED71200010ED9
:10008000046F1200000E056F070E02170233D8CF5F
:1000900005F005B150EC00F00333080E0227120002
:0600A000010E056F1200C5
:020000040001F9
:10FE9C0048656C6C6F20576F726C64210A009280FD
:10FEAC000F0125810001010EC26E300EC16EF60EDF
:10FEBC00C06E1200C282C2B2FED71200AB8EAC98DA
:10FECC00AC94AC8A6596670EAF6E948C12000B6E78
:10FEDC00DE5074ECFFF00B2EFBD712009EA8FED761
:10FEEC00AD6E12008A6AC00E936E280EEAECFFF01B
:10FEFC00300EB9ECFFF00A0EF1ECFFF0280EB9EC65
:10FF0C00FFF00A0EF1ECFFF0280EB9ECFFF00A0E30
:10FF1C00F1ECFFF00F0EB9ECFFF00A0EF1ECFFF074
:10FF2C00010EB9ECFFF0020EEAECFFF0060EB9EC94
:10FF3C00FFF00A0EF1ECFFF012000C6E0C38A8EC7E
:10FF4C00FFF00C500F0B096E0A0E0960070F260FFD
:10FF5C000924C7ECFFF012000A6EDE50C7ECFFF06C
:10FF6C000A2EFBD71200096E09380F0B8A6E8A987D
:10FF7C00D8ECFFF009500F0B8A6E8A98D8ECFFF082
:10FF8C001200096E09380F0B8A6E8A88D8ECFFF0C4
:10FF9C0009500F0B8A6E8A88D8ECFFF00A0EF1EC30
:10FFAC00FFF0120000000000000000000000000044
:10FFBC00000000008A8A0000000000000000000021
:10FFCC00000000008A9A1200086EFA0EF1ECFFF0A5
:10FFDC00082EFBD71200066E063A0F0E0614076E9B
:10FFEC00F00E0616FBECFFF01200000E0606075A88
:04FFFC00FDE2120010
:020000040030CA
:0700000015137F00B98B917D
:06000800FFC0FFE0FF4015
:00000001FF
